:100000000C945E000C9486000C9486000C94860080
:100010000C9486000C9486000C9486000C94860048
:100020000C9486000C9486000C9486000C94860038
:100030000C9486000C9486000C9486000C94860028
:100040000C9459020C9486000C94C9020C94A302DF
:100050000C9486000C9486000C9486000C94860008
:100060000C9486000C9486000000000024002700F9
:100070002A0000000008000201000003040700003D
:10008000000000000000010204081020408001026E
:1000900004081020010204081020000000002500C0
:1000A00028002B00040404040404040402020202D5
:1000B0000202030303030303FB02800611241FBE95
:1000C000CFEFD8E0DEBFCDBF11E0A0E0B1E0E2EDC0
:1000D000F3E102C005900D92A831B107D9F721E0F4
:1000E000A8E1B1E001C01D92AC3FB207E1F710E01A
:1000F000CDE5D0E004C02197FE010E94B008CC35C8
:10010000D107C9F70E949C030C94DC090C940000F1
:1001100090E0FC01EE58FF4F2491FC01EA57FF4F9D
:100120003491FC01EC55FF4FE491EE23B9F1222309
:1001300039F1233091F038F42130A9F0223001F563
:1001400084B58F7D12C0273091F02830A1F0243083
:10015000B9F4809180008F7D03C0809180008F77FB
:10016000809380000DC084B58F7784BD09C08091D5
:10017000B0008F7703C08091B0008F7D8093B00076
:10018000F0E0EE0FFF1FE656FF4FA591B4919FB729
:10019000F8948C91309538233C939FBF0895CF936A
:1001A000DF9390E0FC01EA57FF4F2491FC01EC55EE
:1001B000FF4F8491882361F190E0880F991FFC0123
:1001C000E859FF4FC591D491FC01E656FF4FA59128
:1001D000B491611109C09FB7F8948881209582235A
:1001E0008883EC912E230BC0623061F49FB7F894A2
:1001F0008881322F309583238883EC912E2B2C938A
:100200009FBF06C08FB7F894E8812E2B28838FBF3D
:10021000DF91CF9108958E3008F08E508770806402
:1002200080937C0080917A00806480937A00809132
:100230007A0086FDFCCF809178002091790090E0D3
:10024000922B08953FB7F89480914101909142011B
:10025000A0914301B091440126B5A89B05C02F3F52
:1002600019F00196A11DB11D3FBFBA2FA92F982FDC
:100270008827820F911DA11DB11DBC01CD0142E057
:10028000660F771F881F991F4A95D1F70895CF925F
:10029000DF92EF92FF920F931F93CF93DF936C0146
:1002A0007A018B01C0E0D0E0CE15DF0581F0D801E6
:1002B0006D918D01D601ED91FC910190F081E02DC1
:1002C000C6010995892B11F02196EECF7E01C70159
:1002D000DF91CF911F910F91FF90EF90DF90CF9022
:1002E0000895089580E090E00895FC01538D448DB9
:1002F000252F30E0842F90E0821B930B541710F0D1
:10030000CF96089501970895FC01918D828D9817DD
:1003100061F0828DDF01A80FB11D5D968C91928DE9
:100320009F5F9F73928F90E008958FEF9FEF0895E6
:10033000FC01918D828D981731F0828DE80FF11DAF
:10034000858D90E008958FEF9FEF0895FC01918DCA
:10035000228D892F90E0805C9F4F821B91098F73C3
:100360009927089585E491E00E94A60121E0892B58
:1003700009F420E0822F0895FC01848DDF01A80F8D
:10038000B11DA35ABF4F2C91848D90E001968F73BD
:100390009927848FA689B7892C93A089B1898C91DC
:1003A000837080648C93938D848D981306C002882B
:1003B000F389E02D80818F7D80830895EF92FF92F5
:1003C0000F931F93CF93DF93EC0181E0888F9B8D78
:1003D0008C8D981305C0E889F989808185FD26C038
:1003E000F62E0B8D10E00F5F1F4F0F731127E02EBD
:1003F0008C8DE8120CC00FB607FCFACFE889F9899A
:10040000808185FFF5CFCE010E94BC01F1CF8B8D9D
:10041000FE01E80FF11DE35AFF4FF0829FB7F894F9
:100420000B8FEA89FB89808180620AC09FB7F894AC
:10043000EE89FF896083E889F9898081837080640F
:1004400080839FBF81E090E0DF91CF911F910F915A
:10045000FF90EF900895CF93DF93EC01888D882370
:10046000C9F0EA89FB89808185FD05C0A889B98921
:100470008C9186FD0FC00FB607FCF5CF808185FFFC
:10048000F2CFA889B9898C9185FFEDCFCE010E946A
:10049000BC01E7CFDF91CF91089580E090E0892BF8
:1004A00029F00E94B20181110C94000008950E946D
:1004B000D7091F920F920FB60F9211242F933F93DB
:1004C0008F939F93AF93BF9380913D0190913E0195
:1004D000A0913F01B091400130913C0123E0230FF6
:1004E0002D3720F40196A11DB11D05C026E8230F6C
:1004F0000296A11DB11D20933C0180933D01909374
:100500003E01A0933F01B093400180914101909141
:100510004201A0914301B09144010196A11DB11D7A
:100520008093410190934201A0934301B093440111
:10053000BF91AF919F918F913F912F910F900FBEDF
:100540000F901F9018951F920F920FB60F921124C3
:100550002F933F934F935F936F937F938F939F93CB
:10056000AF93BF93EF93FF9385E491E00E94BC01AA
:10057000FF91EF91BF91AF919F918F917F916F917B
:100580005F914F913F912F910F900FBE0F901F9051
:1005900018951F920F920FB60F9211242F938F93DD
:1005A0009F93EF93FF93E0915501F0915601808165
:1005B000E0915B01F0915C0182FD12C0908180911D
:1005C0005E018F5F8F7320915F01821751F0E09180
:1005D0005E01F0E0EB5BFE4F958F80935E0101C002
:1005E0008081FF91EF919F918F912F910F900FBE7E
:1005F0000F901F901895109248011092470188EEB5
:1006000093E0A0E0B0E08093490190934A01A09369
:100610004B01B0934C018AE091E0909346018093A6
:10062000450185EC90E0909352018093510184EC58
:1006300090E0909354018093530180EC90E090936C
:1006400056018093550181EC90E09093580180937E
:10065000570182EC90E090935A018093590186EC07
:1006600090E090935C0180935B0110925E01109288
:100670005F0110926001109261011092E3011092EB
:10068000EA011092F1011092F2011092F30110921E
:10069000F40181E08093F0018093ED011092EE016E
:1006A00092E09093EF018093E2018EE190E09093CD
:1006B000E7018093E6010E94B6089093EC018093D5
:1006C000EB01009761F02EE1FC0111922A95E9F708
:1006D0008AE090E09093E5018093E40108C01092D5
:1006E000E7011092E6011092E5011092E4018AE020
:1006F00090E09093E9018093E8018091E3018823E1
:1007000039F061E08AE00E94CF008AE00E94880010
:10071000EEEAF0E0E491F0E0EE0FFF1FE656FF4F47
:10072000859194919093F6018093F501E0E9F0E0D2
:10073000E491E093F7010895CF93DF93CDB7DEB74F
:1007400067970FB6F894DEBF0FBECDBF789484B51F
:10075000826084BD84B5816084BD85B5826085BDBD
:1007600085B5816085BD80916E00816080936E004B
:10077000109281008091810082608093810080913D
:1007800081008160809381008091800081608093EE
:1007900080008091B10084608093B1008091B000AE
:1007A00081608093B00080917A00846080937A00A9
:1007B00080917A00826080937A0080917A008160D3
:1007C00080937A0080917A00806880937A001092FA
:1007D000C100E0915501F091560182E08083E091E3
:1007E0005101F09152011082E0915301F0915401B6
:1007F0008FEC808310925D01E0915901F0915A01D4
:1008000086E08083E0915701F091580180818061FA
:100810008083E0915701F091580180818860808346
:10082000E0915701F0915801808180688083E091C8
:100830005701F091580180818F7D808303E010E0A3
:1008400068E0F62E8091E8019091E90197FD07C0DC
:1008500061E00E94CF008091E8010E94880081E061
:100860008093E3018091EB019091EC01892B09F4D5
:10087000B5C00E9422018090F1019090F201A090F9
:10088000F301B090F401681579058A059B0540F4E1
:100890006093F1017093F2018093F3019093F4015E
:1008A0008090F1019090F201A090F301B090F401DA
:1008B000DC01CB0188199909AA09BB098C32914046
:1008C000A105B105B0F2F8948091E6019091E7019D
:1008D0009A838983E091EB01F091EC01DF0111969D
:1008E000808189879091E201E091F501F091F60114
:1008F0008091F701992309F42DC09081982B988756
:100900009081809589238F838F818C83FB8258858A
:100910006F8149853B812C8189819A81508347FD74
:10092000252F3A952083262F39F0441F00C0000060
:100930006083000000C0F2CF38E04D91608300007A
:10094000019761F7F093F601E093F50149873B8346
:100950002C8337C09081982B98879081809589232C
:100960008F838F818E83FD8258856F8149853D817C
:100970002E8189819A81508347FD252F00C000C0B8
:10098000208300C000C000C000C000C06083000021
:10099000262F3A9541F0441F000000C000C000C05F
:1009A00000C000C0E8CF38E04D9100C0608300C0B7
:1009B000019709F7F093F601E093F50149873D832C
:1009C0002E839A83898378940E9422016093F10197
:1009D0007093F2018093F3019093F4010150110997
:1009E00009F030CF5FEA852E53E0952EA12CB12C73
:1009F0008FE00E940B01092E000CAA0BBB0B9C017F
:100A0000AD012055310941095109ADE7B0E00E941F
:100A1000AF06A50194010E949006CA01B9016E5C5F
:100A20007F4F8F4F9F4F6C8B7D8B8E8B9F8B8EE07C
:100A30000E940B018C016C01990FEE08FF0870E514
:100A4000C71AD108E108F108A4EBB0E0A7019601AC
:100A50000E94AF06A50194010E949006DA01C90127
:100A60004496A11DB11D9093190180931801109215
:100A70001B0110921A0190931D0180931C010039F3
:100A80001140E4F4AEE1B0E0A70196010E94AF0688
:100A9000A50194010E949006DA01C9014496A11DA6
:100AA000B11D90931F0180931E011092210110929D
:100AB000200110922301109222010CC090931F017B
:100AC00080931E0190932101809320019093230134
:100AD000809322011B861A861D861C861F861E8611
:100AE00000E010E06A857B85601B710B77FF03C017
:100AF000719561957109072E000C880B990B0E9466
:100B00008E076B017C0120E030E0A9010E941A08E9
:100B100018165CF4A701960160E070E080E89FE39E
:100B20000E94EB066B017C0106C0C12CD12C40E871
:100B3000E42E4FE3F42E38E1232E31E0332E809162
:100B4000E4019091E5010817190708F088C0D10168
:100B50006D917C91072E000C880B990B0E948E07DB
:100B6000A70196010E941F080E945D07462E512C86
:100B7000612C712C320155244424F101628173816E
:100B8000072E000C880B990B0E948E07A701960177
:100B90000E941F080E945D07562AD10114966D918C
:100BA0007C911597072E000C880B990B0E948E07DD
:100BB000A70196010E941F080E945D07D301C20190
:100BC000862BAC01BD012B0166247724BB27A72F00
:100BD000962F852F888B998BAA8BBB8B9889842F16
:100BE000E091EA01EE2391F02E2F30E0249DC00128
:100BF000259D900D349D900D1124492EA889EA9FC2
:100C0000C0011124E49FA0011124852F4091F0011F
:100C10005091ED012091EB013091EC01451305C09D
:100C2000EE85FF852E0F3F1F08C06C857D85260F42
:100C3000371FF901E40FF11D10824091ED01F90118
:100C4000E40FF11D40824091EE01F901E40FF11D26
:100C500090839091EF01F901E90FF11D80837CE011
:100C6000270E311C8CE391E08215930509F067CFC4
:100C70000F5F1F4FAE85BF851396BF87AE87EC858C
:100C8000FD853496FD87EC870A30110509F02ACFDF
:100C9000CC88DD88EE88FF880E9422012B013C0170
:100CA000C114D104E104F104F1F00E942201DC013D
:100CB000CB0184199509A609B709883E9340A1057F
:100CC000B10570F3F1E0CF1AD108E108F10828EE80
:100CD000420E23E0521E611C711CC114D104E104B8
:100CE000F10419F7DDCF6A857B856F5F7F4F7B87C6
:100CF0006A876A30710509F0EFCE0E944D0278CE06
:100D00008091EB019091EC010E944E098091E801E5
:100D10009091E90197FD03C060E00C94CF00089525
:100D2000052E97FB1EF400940E94A70657FD07D0DE
:100D30000E94BA0607FC03D04EF40C94A706509507
:100D40004095309521953F4F4F4F5F4F08959095B7
:100D50008095709561957F4F8F4F9F4F08950E94AA
:100D6000DC06A59F900DB49F900DA49F800D911D52
:100D700011240895A1E21A2EAA1BBB1BFD010DC070
:100D8000AA1FBB1FEE1FFF1FA217B307E407F5073B
:100D900020F0A21BB30BE40BF50B661F771F881F17
:100DA000991F1A9469F760957095809590959B01AD
:100DB000AC01BD01CF010895A29FB001B39FC00156
:100DC000A39F700D811D1124911DB29F700D811D77
:100DD0001124911D08950E94FF060C94E0070E94C3
:100DE000D90758F00E94D20740F029F45F3F29F05C
:100DF0000C94C90751110C9414080C94CF070E944D
:100E0000F10768F39923B1F3552391F3951B550B23
:100E1000BB27AA2762177307840738F09F5F5F4FCD
:100E2000220F331F441FAA1FA9F335D00E2E3AF00C
:100E3000E0E832D091505040E695001CCAF72BD024
:100E4000FE2F29D0660F771F881FBB1F2617370775
:100E50004807AB07B0E809F0BB0B802DBF01FF27A7
:100E600093585F4F3AF09E3F510578F00C94C907B4
:100E70000C9414085F3FE4F3983ED4F3869577957D
:100E80006795B795F7959F5FC9F7880F911D969560
:100E9000879597F90895E1E0660F771F881FBB1FBC
:100EA000621773078407BA0720F0621B730B840B69
:100EB000BA0BEE1F88F7E09508950E94F90788F0B5
:100EC0009F5798F0B92F9927B751B0F0E1F0660F0E
:100ED000771F881F991F1AF0BA95C9F714C0B1304F
:100EE00091F00E941308B1E008950C941308672F45
:100EF000782F8827B85F39F0B93FCCF3869577957E
:100F00006795B395D9F73EF4909580957095619566
:100F10007F4F8F4F9F4F0895E89409C097FB3EF491
:100F200090958095709561957F4F8F4F9F4F992336
:100F3000A9F0F92F96E9BB279395F69587957795B4
:100F40006795B795F111F8CFFAF4BB0F11F460FF74
:100F50001BC06F5F7F4F8F4F9F4F16C0882311F0CC
:100F600096E911C0772321F09EE8872F762F05C0E0
:100F7000662371F096E8862F70E060E02AF09A957B
:100F8000660F771F881FDAF7880F9695879597F970
:100F9000089597F99F6780E870E060E008959FEFFB
:100FA00080EC089500240A94161617061806090600
:100FB000089500240A9412161306140605060895CF
:100FC000092E0394000C11F4882352F0BB0F40F457
:100FD000BF2B11F460FF04C06F5F7F4F8F4F9F4F97
:100FE000089557FD9058440F551F59F05F3F71F019
:100FF0004795880F97FB991F61F09F3F79F0879580
:101000000895121613061406551FF2CF4695F1DF08
:1010100008C0161617061806991FF1CF8695710598
:10102000610508940895E894BB2766277727CB01CC
:1010300097F908950E948C0808F48FEF08950E9494
:1010400032080C94E0070E94D20738F00E94D907BA
:1010500020F0952311F00C94C9070C94CF071124AC
:101060000C9414080E94F10770F3959FC1F3950F3B
:1010700050E0551F629FF001729FBB27F00DB11D1C
:10108000639FAA27F00DB11DAA1F649F6627B00DAC
:10109000A11D661F829F2227B00DA11D621F739F95
:1010A000B00DA11D621F839FA00D611D221F749FA3
:1010B0003327A00D611D231F849F600D211D822FEA
:1010C000762F6A2F11249F5750409AF0F1F0882311
:1010D0004AF0EE0FFF1FBB1F661F771F881F91503E
:1010E0005040A9F79E3F510580F00C94C9070C941D
:1010F00014085F3FE4F3983ED4F38695779567959F
:10110000B795F795E7959F5FC1F7FE2B880F911D67
:101110009695879597F90895990F0008550FAA0B92
:10112000E0E8FEEF16161706E807F907C0F01216FA
:101130001306E407F50798F0621B730B840B950BFD
:1011400039F40A2661F0232B242B252B21F4089552
:101150000A2609F4A140A6958FEF811D811D0895EF
:10116000EE0FFF1F0590F491E02D09940F931F934C
:10117000CF93DF938230910510F482E090E0E0910C
:10118000FA01F091FB0120E030E0A0E0B0E0309700
:1011900019F1408151810281138148175907C8F024
:1011A0008417950769F4109731F012960C931297F3
:1011B00013961C9327C00093FA011093FB0122C0E1
:1011C0002115310519F04217530718F49A01BD0192
:1011D000EF01DF01F801DBCF21153105F9F0281B04
:1011E000390B2430310580F48A819B8161157105AA
:1011F00021F0FB019383828304C09093FB018093D1
:10120000FA01FE01329644C0FE01E20FF31F819302
:10121000919322503109398328833AC02091F801F3
:101220003091F901232B41F4209102013091030107
:101230003093F9012093F8012091000130910101D0
:101240002115310541F42DB73EB74091040150916D
:101250000501241B350BE091F801F091F901E2172B
:10126000F307A0F42E1B3F0B2817390778F0AC01C9
:101270004E5F5F4F2417350748F04E0F5F1F5093A6
:10128000F9014093F8018193919302C0E0E0F0E00E
:10129000CF01DF91CF911F910F910895CF93DF93ED
:1012A000009709F481C0FC01329713821282A09149
:1012B000FA01B091FB01109781F420813181820FF6
:1012C000931F2091F8013091F9012817390751F542
:1012D000F093F901E093F80167C0ED0120E030E000
:1012E000CE17DF0740F44A815B819E01411551050D
:1012F000F1F0EA01F5CFD383C28340815181840F9D
:10130000951FC817D90759F488819981840F951FB3
:101310000296918380838A819B81938382832115A6
:10132000310529F4F093FB01E093FA013DC0E90196
:10133000FB83EA8349915991C40FD51FEC17FD0730
:1013400061F480819181840F951F0296E901998350
:101350008883828193819B838A83E0E0F0E0129608
:101360008D919C911397009719F0FD01DC01F7CF47
:101370008D919C9111979D012E5F3F4F820F931F7E
:101380002091F8013091F9012817390769F4309755
:1013900029F41092FB011092FA0102C0138212820A
:1013A000B093F901A093F801DF91CF91089581E006
:1013B00090E0F8940C94DC0910E0CDE5D0E004C096
:1013C000FE010E94B0082196CE35D107C9F7F894E6
:0213D000FFCF4D
:1013D2000000FC01800000000000DE0147017501F1
:0813E2002B02A6018401980111
:107E0000112484B714BE81FFF0D085E080938100F7
:107E100082E08093C00088E18093C10086E0809377
:107E2000C20080E18093C4008EE0C9D0259A86E02C
:107E300020E33CEF91E0309385002093840096BBD3
:107E4000B09BFECF1D9AA8958150A9F7CC24DD24C4
:107E500088248394B5E0AB2EA1E19A2EF3E0BF2EE7
:107E6000A2D0813461F49FD0082FAFD0023811F036
:107E7000013811F484E001C083E08DD089C08234E0
:107E800011F484E103C0853419F485E0A6D080C0E4
:107E9000853579F488D0E82EFF2485D0082F10E0AE
:107EA000102F00270E291F29000F111F8ED06801E7
:107EB0006FC0863521F484E090D080E0DECF843638
:107EC00009F040C070D06FD0082F6DD080E0C81688
:107ED00080E7D80618F4F601B7BEE895C0E0D1E017
:107EE00062D089930C17E1F7F0E0CF16F0E7DF06D8
:107EF00018F0F601B7BEE89568D007B600FCFDCFD4
:107F0000A601A0E0B1E02C9130E011968C91119780
:107F100090E0982F8827822B932B1296FA010C0160
:107F200087BEE89511244E5F5F4FF1E0A038BF0790
:107F300051F7F601A7BEE89507B600FCFDCF97BE46
:107F4000E89526C08437B1F42ED02DD0F82E2BD052
:107F50003CD0F601EF2C8F010F5F1F4F84911BD097
:107F6000EA94F801C1F70894C11CD11CFA94CF0C13
:107F7000D11C0EC0853739F428D08EE10CD085E9AC
:107F80000AD08FE07ACF813511F488E018D01DD067
:107F900080E101D065CF982F8091C00085FFFCCF94
:107FA0009093C60008958091C00087FFFCCF809118
:107FB000C00084FD01C0A8958091C6000895E0E648
:107FC000F0E098E1908380830895EDDF803219F02E
:107FD00088E0F5DFFFCF84E1DECF1F93182FE3DFCA
:107FE0001150E9F7F2DF1F91089580E0E8DFEE27F6
:047FF000FF270994CA
:027FFE00040479
:0400000300007E007B
:00000001FF
