:100000000C945E000C9486000C9486000C94860080
:100010000C9486000C9486000C9486000C94860048
:100020000C9486000C9486000C9486000C94860038
:100030000C9486000C9486000C9486000C94860028
:100040000C94BD030C9486000C942D040C940704AE
:100050000C9486000C9486000C9486000C94860008
:100060000C9486000C9486000000000024002700F9
:100070002A0000000008000201000003040700003D
:10008000000000000000010204081020408001026E
:1000900004081020010204081020000000002500C0
:1000A00028002B00040404040404040402020202D5
:1000B00002020303030303035F04DA0611241FBED5
:1000C000CFEFD8E0DEBFCDBF11E0A0E0B1E0E0EDC2
:1000D000F3E102C005900D92A831B107D9F721E0F4
:1000E000A8E1B1E001C01D92A83DB207E1F710E020
:1000F000CDE5D0E004C02197FE010E94AF08CC35C9
:10010000D107C9F70E9400050C94DB090C9400008C
:1001100090E0FC01EE58FF4F2491FC01EA57FF4F9D
:100120003491FC01EC55FF4FE491EE23B9F1222309
:1001300039F1233091F038F42130A9F0223001F563
:1001400084B58F7D12C0273091F02830A1F0243083
:10015000B9F4809180008F7D03C0809180008F77FB
:10016000809380000DC084B58F7784BD09C08091D5
:10017000B0008F7703C08091B0008F7D8093B00076
:10018000F0E0EE0FFF1FE656FF4FA591B4919FB729
:10019000F8948C91309538233C939FBF08958F92AB
:1001A0009F92AF92BF92CF92DF92EF92FF92CF9346
:1001B000DF934B01AA24BB24F82DC52ED62EE72EA3
:1001C000FF24AC2DE42F2091C601222361F0829EF2
:1001D00040011124F92D2C9D60011124AD2D249F87
:1001E000E0011124ED2F3091CC01B091C901E090D4
:1001F000C701F090C8013B1308C09C01220F331FB8
:10020000820F931F8E0D9F1D19C0880F991F880F95
:10021000991F8E0D9F1D472F552766277727EC01C5
:10022000C30FD11D222349F030E0249F7001259F88
:10023000F00C349FF00C11244F2D48832091C901FC
:10024000EC01C20FD11DF8832091CA01EC01C20F4D
:10025000D11DA8832091CB01DC01A20FB11DEC932D
:10026000DF91CF91FF90EF90DF90CF90BF90AF9054
:100270009F908F900895CF93DF9390E0FC01EA5711
:10028000FF4F2491FC01EC55FF4F8491882361F1CD
:1002900090E0880F991FFC01E859FF4FC591D49158
:1002A000FC01E656FF4FA591B491611109C09FB7BB
:1002B000F8948881209582238883EC912E230BC0AB
:1002C000623061F49FB7F8948881322F3095832390
:1002D0008883EC912E2B2C939FBF06C08FB7F89488
:1002E000E8812E2B28838FBFDF91CF9108953FB7F0
:1002F000F89480911D0190911E01A0911F01B09171
:10030000200126B5A89B05C02F3F19F00196A11D1D
:10031000B11D3FBFBA2FA92F982F8827820F911D9B
:10032000A11DB11DBC01CD0142E0660F771F881FE2
:10033000991F4A95D1F708950F931F93CF93DF9399
:10034000CDB7DEB729970FB6F894DEBF0FBECDBF8D
:100350008091C7019091C801892B09F4B7C00E9410
:1003600077010091CD011091CE012091CF01309104
:10037000D001601771078207930740F46093CD01A5
:100380007093CE018093CF019093D0010091CD0165
:100390001091CE012091CF013091D001DC01CB0131
:1003A000801B910BA20BB30B8C329140A105B105C0
:1003B000B0F2F8948091C2019091C3019A8389832D
:1003C000E091C701F091C801DF0111968081898712
:1003D0009091BE01E091D101F091D2018091D301C1
:1003E000992309F42EC09081982B9887908180954D
:1003F00089238F838F818C8388E08B8358856F81DD
:1004000049853B812C8189819A81508347FD252F25
:100410003A952083262F39F0441F00C000006083E6
:10042000000000C0F2CF38E04D91608300000197DA
:1004300061F7F093D201E093D10149873B832C838C
:1004400038C09081982B98879081809589238F83DD
:100450008F818E8388E08D8358856F8149853D81AA
:100460002E8189819A81508347FD252F00C000C0CD
:10047000208300C000C000C000C000C06083000036
:10048000262F3A9541F0441F000000C000C000C074
:1004900000C000C0E8CF38E04D9100C0608300C0CC
:1004A000019709F7F093D201E093D10149873D8389
:1004B0002E839A83898378940E9477016093CD017B
:1004C0007093CE018093CF019093D00129960FB6FF
:1004D000F894DEBF0FBECDBFDF91CF911F910F917A
:1004E00008958F929F92AF92BF92CF92DF92EF9238
:1004F000FF926B017C010E9477014B015C01C114EA
:10050000D104E104F104F1F00E947701DC01CB0198
:1005100088199909AA09BB09883E9340A105B1052C
:1005200070F321E0C21AD108E108F10888EE880EC4
:1005300083E0981EA11CB11CC114D104E104F10494
:1005400019F7DDCFFF90EF90DF90CF90BF90AF9085
:100550009F908F900895CF92DF92EF92FF920F932A
:100560001F93CF93DF936C017A018B01C0E0D0E041
:10057000CE15DF0581F0D8016D918D01D601ED9189
:10058000FC910190F081E02DC6010995892B11F0B5
:100590002196EECF7E01C701DF91CF911F910F9180
:1005A000FF90EF90DF90CF900895089580E090E065
:1005B0000895FC01538D448D252F30E0842F90E069
:1005C000821B930B541710F0CF960895019708954E
:1005D000FC01918D828D981761F0828DDF01A80F4B
:1005E000B11D5D968C91928D9F5F9F73928F90E06D
:1005F00008958FEF9FEF0895FC01918D828D9817DC
:1006000031F0828DE80FF11D858D90E008958FEF18
:100610009FEF0895FC01918D228D892F90E0805CE1
:100620009F4F821B91098F739927089581E291E072
:100630000E940A0321E0892B09F420E0822F08950B
:10064000FC01848DDF01A80FB11DA35ABF4F2C916F
:10065000848D90E001968F739927848FA689B7893E
:100660002C93A089B1898C91837080648C93938D35
:10067000848D981306C00288F389E02D80818F7DD8
:1006800080830895EF92FF920F931F93CF93DF9390
:10069000EC0181E0888F9B8D8C8D981305C0E889D3
:1006A000F989808185FD26C0F62E0B8D10E00F5F45
:1006B0001F4F0F731127E02E8C8DE8120CC00FB660
:1006C00007FCFACFE889F989808185FFF5CFCE0153
:1006D0000E942003F1CF8B8DFE01E80FF11DE35A3C
:1006E000FF4FF0829FB7F8940B8FEA89FB898081D6
:1006F00080620AC09FB7F894EE89FF896083E88919
:10070000F98980818370806480839FBF81E090E05D
:10071000DF91CF911F910F91FF90EF900895CF93AC
:10072000DF93EC01888D8823C9F0EA89FB898081F9
:1007300085FD05C0A889B9898C9186FD0FC00FB6CB
:1007400007FCF5CF808185FFF2CFA889B9898C910C
:1007500085FFEDCFCE010E942003E7CFDF91CF913F
:10076000089580E090E0892B29F00E941603811102
:100770000C94000008950E94D6091F920F920FB6A4
:100780000F9211242F933F938F939F93AF93BF9317
:100790008091190190911A01A0911B01B0911C0147
:1007A0003091180123E0230F2D3720F40196A11D6D
:1007B000B11D05C026E8230F0296A11DB11D20938F
:1007C00018018093190190931A01A0931B01B09313
:1007D0001C0180911D0190911E01A0911F01B091FB
:1007E00020010196A11DB11D80931D0190931E0152
:1007F000A0931F01B0932001BF91AF919F918F9162
:100800003F912F910F900FBE0F901F9018951F9240
:100810000F920FB60F9211242F933F934F935F9334
:100820006F937F938F939F93AF93BF93EF93FF93B8
:1008300081E291E00E942003FF91EF91BF91AF917F
:100840009F918F917F916F915F914F913F912F91E8
:100850000F900FBE0F901F9018951F920F920FB61A
:100860000F9211242F938F939F93EF93FF93E09117
:100870003101F09132018081E0913701F09138012E
:1008800082FD12C0908180913A018F5F8F73209119
:100890003B01821751F0E0913A01F0E0EF5DFE4F2D
:1008A000958F80933A0101C08081FF91EF919F91D4
:1008B0008F912F910F900FBE0F901F90189510924F
:1008C00024011092230188EE93E0A0E0B0E0809331
:1008D000250190932601A0932701B09328018AE077
:1008E00091E0909322018093210185EC90E0909318
:1008F0002E0180932D0184EC90E090933001809341
:100900002F0180EC90E0909332018093310181ECD3
:1009100090E0909334018093330182EC90E09093C7
:1009200036018093350186EC90E0909338018093F6
:10093000370110923A0110923B0110923C01109243
:100940003D011092BF011092C6011092CD0110928C
:10095000CE011092CF011092D00181E08093CC01A2
:100960008093C9011092CA0192E09093CB018093C9
:10097000BE018EE190E09093C3018093C2010E947A
:10098000B5089093C8018093C701009761F02EE1EC
:10099000FC0111922A95E9F78AE090E09093C10159
:1009A0008093C00108C01092C3011092C20110923E
:1009B000C1011092C0018AE090E09093C50180933C
:1009C000C4018091BF01882339F061E08AE00E9470
:1009D0003B018AE00E948800EEEAF0E0E491F0E05A
:1009E000EE0FFF1FE656FF4F859194919093D20131
:1009F0008093D101E0E9F0E0E491E093D301089520
:100A0000CF93DF93CDB7DEB72E970FB6F894DEBF46
:100A10000FBECDBF789484B5826084BD84B58160FB
:100A200084BD85B5826085BD85B5816085BD8091B9
:100A30006E00816080936E00109281008091810031
:100A40008260809381008091810081608093810029
:100A5000809180008160809380008091B1008460EB
:100A60008093B1008091B00081608093B00080914C
:100A70007A00846080937A0080917A00826080930B
:100A80007A0080917A00816080937A0080917A0068
:100A9000806880937A001092C100E0913101F0915A
:100AA000320182E08083E0912D01F0912E011082CD
:100AB000E0912F01F09130018FEC80831092390189
:100AC000E0913501F091360186E08083E0913301B9
:100AD000F0913401808180618083E0913301F09155
:100AE0003401808188608083E0913301F09134018A
:100AF000808180688083E0913301F09134018081AE
:100B00008F7D80838091C4019091C50197FD07C0BE
:100B100061E00E943B018091C4010E94880081E055
:100B20008093BF010E949C0170E4272EE2E33E2ED9
:100B300020927C0080917A00806480937A0080917A
:100B40007A0086FDFCCF809178002091790090E0BA
:100B5000922B18161906ACF4AC01452F550F550B06
:100B600045954595349E9001359E300D1124A9017F
:100B700041555F4F8734910534F0C90186559F4F29
:100B800004C040E050E080E090E000E010E06C0144
:100B9000990FEE08FF08CD82DE82EF82F8866A01A7
:100BA000550FEE08FF08C986DA86EB86FC861E869E
:100BB0001D86B801ED84FE846E197F0977FF03C09E
:100BC000719561957109072E000C880B990B0E9495
:100BD0008D076B017C0120E030E0A9010E9419081B
:100BE00018165CF4A701960160E070E080E89FE3CE
:100BF0000E94EA064B015C0106C0812C912C30E872
:100C0000A32E3FE3B32E6D817E818F8198850E9454
:100C10008D072B013C0169857A858B859C850E9417
:100C20008D0769837A838B839C838091C001909127
:100C3000C101CD84DE84C816D90660F529813A81C8
:100C40004B815C81C501B4010E941E080E945C07B3
:100C5000C62ED12CE12CF12C7601DD24CC2420E011
:100C600030E0A901C501B4010E941E080E945C0782
:100C7000D62AA5019401C301B2010E941E080E9458
:100C80005C07D701C601862BAC01BD018D859E8511
:100C90000E94CF00AD85BE851196BE87AD871A979D
:100CA00009F087CF0E949C016BE470E080E090E047
:100CB0000E9471020F5F1F4F0A30110509F077CFB4
:100CC00008E010E01E821D82B801CD80DE806C1924
:100CD0007D0977FF03C0719561957109072E000C9E
:100CE000880B990B0E948D076B017C0120E030E09E
:100CF000A9010E94190818165CF4A701960160E08A
:100D000070E080E89FE30E94EA064B015C0106C0A8
:100D1000812C912C90E8A92E9FE3B92E8091C001DF
:100D20009091C101ED80FE80E816F90660F5A501FD
:100D3000940169817A818B819C810E941E080E94A6
:100D40005C07C62ED12CE12CF12C7601DD24CC24BD
:100D500020E030E0A901C501B4010E941E080E94F4
:100D60005C07D62AA5019401C301B2010E941E08A6
:100D70000E945C07D701C601862BAC01BD018D81A5
:100D80009E810E94CF00AD81BE811196BE83AD834E
:100D90001A9709F099CF0E949C016BE470E080E003
:100DA00090E00E9471020150110909F08BCF0E945E
:100DB000B103BECE8091C7019091C8010E944D0938
:100DC0008091C4019091C50197FD03C060E00C942F
:100DD0003B0108950E94FE060C94DF070E94D8078D
:100DE00058F00E94D10740F029F45F3F29F00C949D
:100DF000C80751110C9413080C94CE070E94F007F9
:100E000068F39923B1F3552391F3951B550BBB2739
:100E1000AA2762177307840738F09F5F5F4F220F7E
:100E2000331F441FAA1FA9F335D00E2E3AF0E0E875
:100E300032D091505040E695001CCAF72BD0FE2FBF
:100E400029D0660F771F881FBB1F26173707480753
:100E5000AB07B0E809F0BB0B802DBF01FF2793580B
:100E60005F4F3AF09E3F510578F00C94C8070C9400
:100E700013085F3FE4F3983ED4F386957795679522
:100E8000B795F7959F5FC9F7880F911D9695879540
:100E900097F90895E1E0660F771F881FBB1F62175F
:100EA00073078407BA0720F0621B730B840BBA0B1D
:100EB000EE1F88F7E09508950E94F80788F09F5785
:100EC00098F0B92F9927B751B0F0E1F0660F771F6E
:100ED000881F991F1AF0BA95C9F714C0B13091F064
:100EE0000E941208B1E008950C941208672F782F21
:100EF0008827B85F39F0B93FCCF386957795679529
:100F0000B395D9F73EF490958095709561957F4F94
:100F10008F4F9F4F0895E89409C097FB3EF490953A
:100F20008095709561957F4F8F4F9F4F9923A9F0C2
:100F3000F92F96E9BB279395F69587957795679551
:100F4000B795F111F8CFFAF4BB0F11F460FF1BC095
:100F50006F5F7F4F8F4F9F4F16C0882311F096E928
:100F600011C0772321F09EE8872F762F05C06623D6
:100F700071F096E8862F70E060E02AF09A95660F8F
:100F8000771F881FDAF7880F9695879597F9089548
:100F900097F99F6780E870E060E008959FEF80EC2C
:100FA000089500240A9416161706180609060895CF
:100FB00000240A9412161306140605060895092E35
:100FC0000394000C11F4882352F0BB0F40F4BF2BA4
:100FD00011F460FF04C06F5F7F4F8F4F9F4F0895E4
:100FE00057FD9058440F551F59F05F3F71F04795DA
:100FF000880F97FB991F61F09F3F79F087950895BF
:10100000121613061406551FF2CF4695F1DF08C0DD
:10101000161617061806991FF1CF869571056105FA
:1010200008940895E894BB2766277727CB0197F9A2
:1010300008950E948B0808F48FEF08950E943108EC
:101040000C94DF070E94D10738F00E94D80720F0E7
:10105000952311F00C94C8070C94CE0711240C941E
:1010600013080E94F00770F3959FC1F3950F50E0AD
:10107000551F629FF001729FBB27F00DB11D639F4A
:10108000AA27F00DB11DAA1F649F6627B00DA11DF0
:10109000661F829F2227B00DA11D621F739FB00D96
:1010A000A11D621F839FA00D611D221F749F332706
:1010B000A00D611D231F849F600D211D822F762F9F
:1010C0006A2F11249F5750409AF0F1F088234AF07C
:1010D000EE0FFF1FBB1F661F771F881F91505040E8
:1010E000A9F79E3F510580F00C94C8070C94130893
:1010F0005F3FE4F3983ED4F3869577956795B7956F
:10110000F795E7959F5FC1F7FE2B880F911D969588
:10111000879597F90895990F0008550FAA0BE0E8F5
:10112000FEEF16161706E807F907C0F012161306A9
:10113000E407F50798F0621B730B840B950B39F4E9
:101140000A2661F0232B242B252B21F408950A264F
:1011500009F4A140A6958FEF811D811D0895EE0F22
:10116000FF1F0590F491E02D09940F931F93CF93E7
:10117000DF938230910510F482E090E0E091D60197
:10118000F091D70120E030E0A0E0B0E0309719F115
:10119000408151810281138148175907C8F0841793
:1011A000950769F4109731F012960C9312971396E5
:1011B0001C9327C00093D6011093D70122C021159C
:1011C000310519F04217530718F49A01BD01EF01D8
:1011D000DF01F801DBCF21153105F9F0281B390BB0
:1011E0002430310580F48A819B816115710521F0DD
:1011F000FB019383828304C09093D7018093D6012F
:10120000FE01329644C0FE01E20FF31F81939193D9
:1012100022503109398328833AC02091D40130917A
:10122000D501232B41F42091020130910301309329
:10123000D5012093D40120910001309101012115A5
:10124000310541F42DB73EB740910401509105019D
:10125000241B350BE091D401F091D501E217F3077F
:10126000A0F42E1B3F0B2817390778F0AC014E5F16
:101270005F4F2417350748F04E0F5F1F5093D5017D
:101280004093D4018193919302C0E0E0F0E0CF015C
:10129000DF91CF911F910F910895CF93DF93009726
:1012A00009F481C0FC01329713821282A091D60109
:1012B000B091D701109781F420813181820F931F63
:1012C0002091D4013091D5012817390751F5F093B9
:1012D000D501E093D40167C0ED0120E030E0CE17E6
:1012E000DF0740F44A815B819E0141155105F1F011
:1012F000EA01F5CFD383C28340815181840F951FCA
:10130000C817D90759F488819981840F951F0296CF
:10131000918380838A819B81938382832115310508
:1013200029F4F093D701E093D6013DC0E901FB8396
:10133000EA8349915991C40FD51FEC17FD0761F459
:1013400080819181840F951F0296E901998388839A
:10135000828193819B838A83E0E0F0E012968D91F5
:101360009C911397009719F0FD01DC01F7CF8D9147
:101370009C9111979D012E5F3F4F820F931F2091EB
:10138000D4013091D5012817390769F4309729F431
:101390001092D7011092D60102C013821282B0932C
:1013A000D501A093D401DF91CF91089581E090E021
:1013B000F8940C94DB0910E0CDE5D0E004C0FE0108
:1013C0000E94AF082196CE35D107C9F7F894FFCF18
:1013D0000000D8018000000000004203AB02D902E7
:0813E0008F030A03E802FC027E
:107E0000112484B714BE81FFF0D085E080938100F7
:107E100082E08093C00088E18093C10086E0809377
:107E2000C20080E18093C4008EE0C9D0259A86E02C
:107E300020E33CEF91E0309385002093840096BBD3
:107E4000B09BFECF1D9AA8958150A9F7CC24DD24C4
:107E500088248394B5E0AB2EA1E19A2EF3E0BF2EE7
:107E6000A2D0813461F49FD0082FAFD0023811F036
:107E7000013811F484E001C083E08DD089C08234E0
:107E800011F484E103C0853419F485E0A6D080C0E4
:107E9000853579F488D0E82EFF2485D0082F10E0AE
:107EA000102F00270E291F29000F111F8ED06801E7
:107EB0006FC0863521F484E090D080E0DECF843638
:107EC00009F040C070D06FD0082F6DD080E0C81688
:107ED00080E7D80618F4F601B7BEE895C0E0D1E017
:107EE00062D089930C17E1F7F0E0CF16F0E7DF06D8
:107EF00018F0F601B7BEE89568D007B600FCFDCFD4
:107F0000A601A0E0B1E02C9130E011968C91119780
:107F100090E0982F8827822B932B1296FA010C0160
:107F200087BEE89511244E5F5F4FF1E0A038BF0790
:107F300051F7F601A7BEE89507B600FCFDCF97BE46
:107F4000E89526C08437B1F42ED02DD0F82E2BD052
:107F50003CD0F601EF2C8F010F5F1F4F84911BD097
:107F6000EA94F801C1F70894C11CD11CFA94CF0C13
:107F7000D11C0EC0853739F428D08EE10CD085E9AC
:107F80000AD08FE07ACF813511F488E018D01DD067
:107F900080E101D065CF982F8091C00085FFFCCF94
:107FA0009093C60008958091C00087FFFCCF809118
:107FB000C00084FD01C0A8958091C6000895E0E648
:107FC000F0E098E1908380830895EDDF803219F02E
:107FD00088E0F5DFFFCF84E1DECF1F93182FE3DFCA
:107FE0001150E9F7F2DF1F91089580E0E8DFEE27F6
:047FF000FF270994CA
:027FFE00040479
:0400000300007E007B
:00000001FF
