:100000000C945E000C9486000C9486000C94860080
:100010000C9486000C9486000C9486000C94860048
:100020000C9486000C9486000C9486000C94860038
:100030000C9486000C9486000C9486000C94860028
:100040000C94F3030C9486000C9463040C943D040C
:100050000C9486000C9486000C9486000C94860008
:100060000C9486000C9486000000000024002700F9
:100070002A0000000000250028002B0004040404CE
:100080000404040402020202020203030303030342
:10009000010204081020408001020408102001021F
:1000A00004081020000000080002010000030407FB
:1000B0000000000000000000E604B00711241FBE8D
:1000C000CFEFD8E0DEBFCDBF11E0A0E0B1E0EAE2C3
:1000D000F6E102C005900D92A831B107D9F722E0F0
:1000E000A8E1B1E001C01D92A832B207E1F710E02B
:1000F000CDE5D0E004C02197FE010E94DC09CC359B
:10010000D107C9F70E9424050C94080B0C94000039
:1001100090E0FC01EC55FF4F2491FC01E057FF4FAC
:100120003491FC01E458FF4FE491EE23B9F122230E
:1001300039F1233091F038F42130A9F0223001F563
:1001400084B58F7D12C0273091F02830A1F0243083
:10015000B9F4809180008F7D03C0809180008F77FB
:10016000809380000DC084B58F7784BD09C08091D5
:10017000B0008F7703C08091B0008F7D8093B00076
:10018000F0E0EE0FFF1FEE58FF4FA591B4919FB71F
:10019000F8948C91309538233C939FBF0895CF936A
:1001A000DF9390E0FC01E057FF4F2491FC01E458FD
:1001B000FF4F8491882361F190E0880F991FFC0123
:1001C000E859FF4FC591D491FC01EE58FF4FA5911E
:1001D000B491611109C09FB7F8948881209582235A
:1001E0008883EC912E230BC0623061F49FB7F894A2
:1001F0008881322F309583238883EC912E2B2C938A
:100200009FBF06C08FB7F894E8812E2B28838FBF3D
:10021000DF91CF9108958E3008F08E508770806402
:1002200080937C0080917A00806480937A00809132
:100230007A0086FDFCCF809178002091790090E0D3
:10024000922B08953FB7F89480914101909142011B
:10025000A0914301B091440126B5A89B05C02F3F52
:1002600019F00196A11DB11D3FBFBA2FA92F982FDC
:100270008827820F911DA11DB11DBC01CD0142E057
:10028000660F771F881F991F4A95D1F708958F929F
:100290009F92AF92BF92CF92DF92EF92FF926B014B
:1002A0007C010E9422014B015C01C114D104E104D4
:1002B000F104F1F00E942201DC01CB0188199909B7
:1002C000AA09BB09883E9340A105B10570F321E05E
:1002D000C21AD108E108F10888EE880E83E0981E62
:1002E000A11CB11CC114D104E104F10419F7DDCF44
:1002F000FF90EF90DF90CF90BF90AF909F908F9046
:100300000895CF92DF92EF92FF920F931F93CF93B6
:10031000DF936C017A018B01C0E0D0E0CE15DF05E0
:1003200081F0D8016D918D01D601ED91FC91019084
:10033000F081E02DC6010995892B11F02196EECFB1
:100340007E01C701DF91CF911F910F91FF90EF9038
:10035000DF90CF900895089580E090E00895FC012B
:10036000538D448D252F30E0842F90E0821B930B1A
:10037000541710F0CF96089501970895FC01918DC0
:10038000828D981761F0828DDF01A80FB11D5D96F7
:100390008C91928D9F5F9F73928F90E008958FEF65
:1003A0009FEF0895FC01918D828D981731F0828D19
:1003B000E80FF11D858D90E008958FEF9FEF089570
:1003C000FC01918D228D892F90E0805C9F4F821BD4
:1003D00091098F739927089585E491E00E94E001C7
:1003E00021E0892B09F420E0822F0895FC01848DFF
:1003F000DF01A80FB11DA35ABF4F2C91848D90E04F
:1004000001968F739927848FA689B7892C93A08929
:10041000B1898C91837080648C93938D848D9813B3
:1004200006C00288F389E02D80818F7D8083089546
:10043000EF92FF920F931F93CF93DF93EC0181E034
:10044000888F9B8D8C8D981305C0E889F9898081F0
:1004500085FD26C0F62E0B8D10E00F5F1F4F0F732A
:100460001127E02E8C8DE8120CC00FB607FCFACFD6
:10047000E889F989808185FFF5CFCE010E94F601D8
:10048000F1CF8B8DFE01E80FF11DE35AFF4FF08293
:100490009FB7F8940B8FEA89FB89808180620AC03C
:1004A0009FB7F894EE89FF896083E889F989808194
:1004B0008370806480839FBF81E090E0DF91CF9163
:1004C0001F910F91FF90EF900895CF93DF93EC0170
:1004D000888D8823C9F0EA89FB89808185FD05C064
:1004E000A889B9898C9186FD0FC00FB607FCF5CF9E
:1004F000808185FFF2CFA889B9898C9185FFEDCFE6
:10050000CE010E94F601E7CFDF91CF91089580E000
:1005100090E0892B29F00E94EC0181110C940000DD
:1005200008957F928F929F92AF92BF92CF92DF9267
:10053000EF92FF920F931F93CF93DF93FC01828181
:1005400093816817790708F053C04A01AA24BB2495
:10055000782CC32ED42EE52EFF24BC2DA22F80850F
:10056000882361F0889E40011124792C8C9D6001C4
:100570001124BD2D829F70011124AF2D9685D38546
:10058000E184F2849D1308C0CB01880F991F680F86
:10059000791F6E0D7F1D1CC0660F771F660F771FBA
:1005A0006E0D7F1D052F1127222733277B01E90EB2
:1005B000F11C811102C0202F09C090E0809F6001D2
:1005C000819FD00C909FD00C11242D2DE701288302
:1005D00083859B01280F311DE90178828485EB0119
:1005E000C80FD11DB8838585FB01E80FF11DA083DD
:1005F000DF91CF911F910F91FF90EF90DF90CF90FF
:10060000BF90AF909F908F907F900895CF92DF9290
:10061000EF92FF920F931F93CF93DF93CDB7DEB787
:1006200029970FB6F894DEBF0FBECDBF8C01DC0159
:1006300019968D919C911A97892B09F4B1C00E944B
:100640002201F801C784D088E188F2886C157D0505
:100650008E059F0520F46787708B818B928BF80144
:10066000C784D088E188F288DC01CB018C199D0910
:10067000AE09BF098C329140A105B10500F3F89491
:10068000D80114968D919C9115979A838983199618
:10069000ED91FC911A977F01BFEFEB1AFB0A808165
:1006A0008987F80190810388F489E02DD801559657
:1006B0008C91992309F430C09081982B9887908170
:1006C000809589238F838F818C8388E08B835885E5
:1006D0006F8149853B812C8189819A81D701508323
:1006E00047FD252F3A952083262F39F0441F00C05F
:1006F00000006083000000C0F2CF38E04D916083BD
:100700000000019761F7D8015496FC93EE9353973C
:1007100049873B832C833AC09081982B988790819E
:10072000809589238F838F818E8388E08D83588580
:100730006F8149853D812E8189819A81D7015083BE
:1007400047FD252F00C000C0208300C000C000C0AE
:1007500000C000C060830000262F3A9541F0441F7E
:10076000000000C000C000C000C000C0E8CF38E0FA
:100770004D9100C0608300C0019709F7D8015496DD
:10078000FC93EE93539749873D832E839A83898305
:1007900078940E942201F8016787708B818B928B7D
:1007A00029960FB6F894DEBF0FBECDBFDF91CF9173
:1007B0001F910F91FF90EF90DF90CF900895CF930E
:1007C000DF93EC018E819F8197FD06C061E00E945E
:1007D000CF008E810E94880081E08983DF91CF91D4
:1007E00008950E94030B1F920F920FB60F921124CF
:1007F0002F933F938F939F93AF93BF9380913D012E
:1008000090913E01A0913F01B091400130913C0197
:1008100023E0230F2D3720F40196A11DB11D05C043
:1008200026E8230F0296A11DB11D20933C01809361
:100830003D0190933E01A0933F01B0934001809110
:10084000410190914201A0914301B0914401019670
:10085000A11DB11D8093410190934201A0934301DA
:10086000B0934401BF91AF919F918F913F912F9190
:100870000F900FBE0F901F9018951F920F920FB6FA
:100880000F9211242F933F934F935F936F937F9316
:100890008F939F93AF93BF93EF93FF9385E491E082
:1008A0000E94F601FF91EF91BF91AF919F918F91BF
:1008B0007F916F915F914F913F912F910F900FBE5C
:1008C0000F901F9018951F920F920FB60F92112440
:1008D0002F938F939F93EF93FF93E0915501F091A6
:1008E00056018081E0915B01F0915C0182FD12C0B4
:1008F000908180915E018F5F8F7320915F018217DD
:1009000051F0E0915E01F0E0EB5BFE4F958F80933C
:100910005E0101C08081FF91EF919F918F912F9196
:100920000F900FBE0F901F9018950F931F93CF93AA
:10093000DF93EC01162F072F198218861F86188A5D
:10094000198A1A8A81E08E878B871C8692E09D87A0
:1009500088838EE190E09D838C830E94E2099A87D0
:100960008987009751F02EE1FC0111922A95E9F751
:100970008AE090E09B838A8304C01D821C821B82D4
:100980001A821E830F838981882339F061E0812FC9
:100990000E94CF00812F0E948800812F902FFC01A0
:1009A000E458FF4FE491F0E0EE0FFF1FEE58FF4FC9
:1009B000259134913C8B2B8BFC01E057FF4FE49148
:1009C000ED8BDF91CF911F910F910895E5E4F1E058
:1009D0001382128288EE93E0A0E0B0E084839583D6
:1009E000A683B7838AE091E09183808385EC90E0D1
:1009F0009587848784EC90E09787868780EC90E0E9
:100A0000918B808B81EC90E0938B828B82EC90E0D9
:100A1000958B848B86EC90E0978B868B118E128E53
:100A2000138E148E6AE070E08EE092E00E949504CE
:100A300069E070E088EF91E00E94950468E070E062
:100A400082EE91E00C949504CF93DF9300D000D018
:100A500000D0CDB7DEB7789484B5826084BD84B50C
:100A6000816084BD85B5826085BD85B5816085BDA9
:100A700080916E00816080936E0010928100809161
:100A800081008260809381008091810081608093E9
:100A90008100809180008160809380008091B1000E
:100AA00084608093B1008091B00081608093B00039
:100AB00080917A00846080937A0080917A008260CD
:100AC00080937A0080917A00816080937A0080918F
:100AD0007A00806880937A001092C100E0915501FD
:100AE000F091560182E08083E0915101F091520132
:100AF0001082E0915301F09154018FEC80831092A9
:100B00005D01E0915901F0915A0186E08083E09106
:100B10005701F0915801808180618083E0915701F5
:100B2000F0915801808188608083E0915701F091B5
:100B30005801808180688083E0915701F0915801CD
:100B400080818F7D80831A82198229813A812130A8
:100B5000310551F02230310571F08EE092E00E94B3
:100B6000DF038EE092E00DC088EF91E00E94DF038A
:100B700088EF91E006C082EE91E00E94DF0382EEF2
:100B800091E00E94060389819A8101969A83898364
:100B90000397D9F681E10E940B01092E000CAA0BE4
:100BA000BB0B9C01AD012055310941095109ADE74D
:100BB000B0E00E94DB072FEA33E040E050E00E9403
:100BC000BC07DA01C901C296A11DB11D89839A83B0
:100BD000AB83BC838EE00E940B019E838D836C01EE
:100BE000990FEE08FF0890E5C91AD108E108F1084D
:100BF000A4EBB0E0A70196010E94DB072FEA33E0E7
:100C000040E050E00E94BC07DA01C9014496A11DF2
:100C1000B11D909319018093180110921B0110923D
:100C20001A0190931D0180931C01ED81FE81E03932
:100C3000F140F4F4AEE1B0E0A70196010E94DB07B9
:100C40002FEA33E040E050E00E94BC07DA01C9011E
:100C50004496A11DB11D90931F0180931E01109217
:100C600021011092200110922301109222010CC048
:100C700090931F0180931E01909321018093200186
:100C80009093230180932201812C912C1E821D823E
:100C9000B4018D819E81681B790B77FF03C071952C
:100CA00061957109072E000C880B990B0E94BA08F8
:100CB0006B017C0120E030E0A9010E944609181672
:100CC0005CF4A701960160E070E080E89FE30E9479
:100CD00017082B013C0106C0412C512C60E8662E00
:100CE0006FE3762E58E1A52E51E0B52E00E010E01E
:100CF000D5016D917C91072E000C880B990B0E94F9
:100D0000BA08A30192010E944B090E948908C62ECD
:100D1000D12CE12CF12C7601DD24CC24F50162816B
:100D20007381072E000C880B990B0E94BA08A3014F
:100D300092010E944B090E948908D62AD501149677
:100D40006D917C911597072E000C880B990B0E94D2
:100D5000BA08A30192010E944B090E948908A701C9
:100D60009601262B6D817E810130110531F0023014
:100D7000110531F08EE092E005C088EF91E002C0ED
:100D800082EE91E00E9491020F5F1F4FBCE0AB0E1C
:100D9000B11C0330110509F0ABCFED81FE81319616
:100DA000FE83ED833A9709F073CF8EE092E00E94C4
:100DB000060388EF91E00E94060382EE91E00E9414
:100DC000060369817A818B819C810E9447013FEFF4
:100DD000831A930A4AE08416910409F057CF39E048
:100DE000832E912C1E821D82B4018D819E81681BF1
:100DF000790B77FF03C0719561957109072E000C7F
:100E0000880B990B0E94BA086B017C0120E030E04E
:100E1000A9010E94460918165CF4A701960160E03A
:100E200070E080E89FE30E9417082B013C0106C098
:100E3000412C512C20E8622E2FE3722E98E1A92E2E
:100E400091E0B92E00E010E0D50116966D917C91ED
:100E50001797072E000C880B990B0E94BA08A30164
:100E600092010E944B090E948908C62ED12CE12CC8
:100E7000F12C7601DD24CC24F50160857185072EE7
:100E8000000C880B990B0E94BA08A30192010E94E2
:100E90004B090E948908D62AD5011A966D917C913A
:100EA0001B97072E000C880B990B0E94BA08A30110
:100EB00092010E944B090E948908A7019601262BE6
:100EC0006D817E810130110531F00230110531F064
:100ED0008EE092E005C088EF91E002C082EE91E0E2
:100EE0000E9491020F5F1F4FBCE0AB0EB11C03309C
:100EF000110509F0A9CFED81FE813196FE83ED83C6
:100F00003A9709F071CF8EE092E00E94060388EFD5
:100F100091E00E94060382EE91E00E94060369813F
:100F20007A818B819C810E944701F1E08F1A9108A0
:100F300008F058CF0E9487022DCECF93DF93EC01AB
:100F400089859A850E947A0A8E819F8197FD05C0C6
:100F500060E0DF91CF910C94CF00DF91CF910895A5
:100F600082EE91E00E949D0788EF91E00E949D072C
:100F70008EE092E00C949D07052E97FB1EF40094E2
:100F80000E94D30757FD07D00E94E60707FC03D055
:100F90004EF40C94D30750954095309521953F4FD2
:100FA0004F4F5F4F089590958095709561957F4F55
:100FB0008F4F9F4F08950E940808A59F900DB49FE2
:100FC000900DA49F800D911D11240895A1E21A2E69
:100FD000AA1BBB1BFD010DC0AA1FBB1FEE1FFF1FDD
:100FE000A217B307E407F50720F0A21BB30BE40B2D
:100FF000F50B661F771F881F991F1A9469F7609574
:101000007095809590959B01AC01BD01CF0108952D
:10101000A29FB001B39FC001A39F700D811D112439
:10102000911DB29F700D811D1124911D08950E9484
:101030002B080C940C090E94050958F00E94FE0828
:1010400040F029F45F3F29F00C94F50851110C94FD
:1010500040090C94FB080E941D0968F39923B1F321
:10106000552391F3951B550BBB27AA2762177307CE
:10107000840738F09F5F5F4F220F331F441FAA1F62
:10108000A9F335D00E2E3AF0E0E832D0915050401E
:10109000E695001CCAF72BD0FE2F29D0660F771FCC
:1010A000881FBB1F261737074807AB07B0E809F0B2
:1010B000BB0B802DBF01FF2793585F4F3AF09E3F37
:1010C000510578F00C94F5080C9440095F3FE4F367
:1010D000983ED4F3869577956795B795F7959F5F7A
:1010E000C9F7880F911D9695879597F90895E1E0C6
:1010F000660F771F881FBB1F621773078407BA0725
:1011000020F0621B730B840BBA0BEE1F88F7E0957F
:1011100008950E94250988F09F5798F0B92F9927C4
:10112000B751B0F0E1F0660F771F881F991F1AF0D2
:10113000BA95C9F714C0B13091F00E943F09B1E0EF
:1011400008950C943F09672F782F8827B85F39F0EE
:10115000B93FCCF3869577956795B395D9F73EF46B
:1011600090958095709561957F4F8F4F9F4F089513
:10117000E89409C097FB3EF4909580957095619531
:101180007F4F8F4F9F4F9923A9F0F92F96E9BB27E7
:101190009395F695879577956795B795F111F8CF63
:1011A000FAF4BB0F11F460FF1BC06F5F7F4F8F4FCE
:1011B0009F4F16C0882311F096E911C0772321F0C4
:1011C0009EE8872F762F05C0662371F096E8862F5C
:1011D00070E060E02AF09A95660F771F881FDAF7B3
:1011E000880F9695879597F9089597F99F6780E8F6
:1011F00070E060E008959FEF80EC089500240A9469
:101200001616170618060906089500240A941216E1
:101210001306140605060895092E0394000C11F414
:10122000882352F0BB0F40F4BF2B11F460FF04C0C1
:101230006F5F7F4F8F4F9F4F089557FD9058440F1A
:10124000551F59F05F3F71F04795880F97FB991F25
:1012500061F09F3F79F087950895121613061406E2
:10126000551FF2CF4695F1DF08C01616170618066F
:10127000991FF1CF86957105610508940895E8944A
:10128000BB2766277727CB0197F908950E94B809F5
:1012900008F48FEF08950E945E090C940C090E94D7
:1012A000FE0838F00E94050920F0952311F00C94F7
:1012B000F5080C94FB0811240C9440090E941D09A8
:1012C00070F3959FC1F3950F50E0551F629FF00199
:1012D000729FBB27F00DB11D639FAA27F00DB11DB2
:1012E000AA1F649F6627B00DA11D661F829F22273B
:1012F000B00DA11D621F739FB00DA11D621F839FC2
:10130000A00D611D221F749F3327A00D611D231F97
:10131000849F600D211D822F762F6A2F11249F57E5
:1013200050409AF0F1F088234AF0EE0FFF1FBB1FE8
:10133000661F771F881F91505040A9F79E3F5105A7
:1013400080F00C94F5080C9440095F3FE4F3983E5C
:10135000D4F3869577956795B795F795E7959F5F51
:10136000C1F7FE2B880F911D9695879597F90895E3
:10137000990F0008550FAA0BE0E8FEEF16161706A6
:10138000E807F907C0F012161306E407F50798F00E
:10139000621B730B840B950B39F40A2661F0232B27
:1013A000242B252B21F408950A2609F4A140A695A3
:1013B0008FEF811D811D0895EE0FFF1F0590F491A1
:1013C000E02D09940F931F93CF93DF938230910503
:1013D00010F482E090E0E0912602F091270220E0F4
:1013E00030E0A0E0B0E0309719F1408151810281F6
:1013F000138148175907C8F08417950769F41097A7
:1014000031F012960C93129713961C9327C00093F9
:1014100026021093270222C02115310519F0421728
:10142000530718F49A01BD01EF01DF01F801DBCF8A
:1014300021153105F9F0281B390B2430310580F4D2
:101440008A819B816115710521F0FB019383828361
:1014500004C09093270280932602FE01329644C076
:10146000FE01E20FF31F81939193225031093983DA
:1014700028833AC02091240230912502232B41F485
:101480002091020130910301309325022093240220
:1014900020910001309101012115310541F42DB752
:1014A0003EB74091040150910501241B350BE0919A
:1014B0002402F0912502E217F307A0F42E1B3F0B44
:1014C0002817390778F0AC014E5F5F4F24173507B6
:1014D00048F04E0F5F1F50932502409324028193E2
:1014E000919302C0E0E0F0E0CF01DF91CF911F9136
:1014F0000F910895CF93DF93009709F481C0FC0109
:10150000329713821282A0912602B091270210977F
:1015100081F420813181820F931F20912402309128
:1015200025022817390751F5F0932502E09324028C
:1015300067C0ED0120E030E0CE17DF0740F44A81BC
:101540005B819E0141155105F1F0EA01F5CFD3838E
:10155000C28340815181840F951FC817D90759F460
:1015600088819981840F951F0296918380838A8157
:101570009B81938382832115310529F4F0932702FF
:10158000E09326023DC0E901FB83EA83499159912A
:10159000C40FD51FEC17FD0761F480819181840F82
:1015A000951F0296E90199838883828193819B83A9
:1015B0008A83E0E0F0E012968D919C91139700975A
:1015C00019F0FD01DC01F7CF8D919C9111979D01E0
:1015D0002E5F3F4F820F931F2091240230912502EE
:1015E0002817390769F4309729F4109227021092CE
:1015F000260202C013821282B0932502A093240215
:10160000DF91CF91089581E090E0F8940C94080B5D
:1016100010E0CDE5D0E004C0FE010E94DC09219677
:0A162000CE35D107C9F7F894FFCFCB
:10162A000000280280000000000018028101AF01BA
:08163A006502E001BE01D201CE
:00000001FF
